{
  "contractName": "ChristmasStocking",
  "abi": [
    {
      "inputs": [],
      "payable": false,
      "stateMutability": "nonpayable",
      "type": "constructor",
      "signature": "constructor"
    },
    {
      "constant": true,
      "inputs": [],
      "name": "isOpen",
      "outputs": [
        {
          "name": "",
          "type": "bool"
        }
      ],
      "payable": false,
      "stateMutability": "view",
      "type": "function",
      "signature": "0x47535d7b"
    },
    {
      "constant": true,
      "inputs": [
        {
          "name": "who",
          "type": "address"
        }
      ],
      "name": "balanceOf",
      "outputs": [
        {
          "name": "",
          "type": "uint256"
        }
      ],
      "payable": false,
      "stateMutability": "view",
      "type": "function",
      "signature": "0x70a08231"
    },
    {
      "constant": false,
      "inputs": [],
      "name": "deposit",
      "outputs": [],
      "payable": true,
      "stateMutability": "payable",
      "type": "function",
      "signature": "0xd0e30db0"
    },
    {
      "constant": false,
      "inputs": [],
      "name": "bribe",
      "outputs": [],
      "payable": true,
      "stateMutability": "payable",
      "type": "function",
      "signature": "0x37d0208c"
    },
    {
      "constant": false,
      "inputs": [],
      "name": "withdraw",
      "outputs": [],
      "payable": false,
      "stateMutability": "nonpayable",
      "type": "function",
      "signature": "0x3ccfd60b"
    }
  ],
  "bytecode": "0x608060405234801561001057600080fd5b5060008060006101000a81548160ff0219169083151502179055506104738061003a6000396000f3fe60806040526004361061006d576000357c0100000000000000000000000000000000000000000000000000000000900463ffffffff16806337d0208c146100725780633ccfd60b1461007c57806347535d7b1461009357806370a08231146100c2578063d0e30db014610127575b600080fd5b61007a610131565b005b34801561008857600080fd5b506100916101e2565b005b34801561009f57600080fd5b506100a86102b5565b604051808215151515815260200191505060405180910390f35b3480156100ce57600080fd5b50610111600480360360208110156100e557600080fd5b81019080803573ffffffffffffffffffffffffffffffffffffffff1690602001909291905050506102cb565b6040518082815260200191505060405180910390f35b61012f610314565b005b6000809054906101000a900460ff16151561014b57600080fd5b61019d34600160003273ffffffffffffffffffffffffffffffffffffffff1673ffffffffffffffffffffffffffffffffffffffff1681526020019081526020016000205461042690919063ffffffff16565b600160003273ffffffffffffffffffffffffffffffffffffffff1673ffffffffffffffffffffffffffffffffffffffff16815260200190815260200160002081905550565b6000600160003373ffffffffffffffffffffffffffffffffffffffff1673ffffffffffffffffffffffffffffffffffffffff1681526020019081526020016000205490506000600160003373ffffffffffffffffffffffffffffffffffffffff1673ffffffffffffffffffffffffffffffffffffffff168152602001908152602001600020819055503373ffffffffffffffffffffffffffffffffffffffff166108fc829081150290604051600060405180830381858888f193505050501580156102b1573d6000803e3d6000fd5b5050565b60008060009054906101000a900460ff16905090565b6000600160008373ffffffffffffffffffffffffffffffffffffffff1673ffffffffffffffffffffffffffffffffffffffff168152602001908152602001600020549050919050565b60016000806101000a81548160ff02191690831515021790555060003373ffffffffffffffffffffffffffffffffffffffff16346040516020016040516020818303038152906040526040518082805190602001908083835b602083101515610392578051825260208201915060208101905060208303925061036d565b6001836020036101000a03801982511681845116808217855250505050505090500191505060006040518083038185875af1925050503d80600081146103f4576040519150601f19603f3d011682016040523d82523d6000602084013e6103f9565b606091505b5050905080151561040957600080fd5b60008060006101000a81548160ff02191690831515021790555050565b600080828401905083811015151561043d57600080fd5b809150509291505056fea165627a7a72305820f95b8aea22b700103f72aa1f61c4148db386e56799cae5b5b8635ee1d2bdfdb80029",
  "source": "pragma solidity >0.4.99 <0.6.0;\n\nimport \"./SafeMath.sol\";\n\ncontract ChristmasStocking {\n  using SafeMath for uint256;\n\n  bool private _isOpen;\n  mapping(address => uint256) private _balances;\n\n  constructor() public {\n    _isOpen = false;\n  }\n\n  function isOpen() public view returns (bool) {\n    return _isOpen;\n  }\n\n  function balanceOf(address who) public view returns (uint256) {\n    return _balances[who];\n  }\n\n  function deposit() payable public {\n    _isOpen = true;\n    (bool success,) = msg.sender.call.value(msg.value)(abi.encodePacked());\n    require(success);\n    _isOpen = false;\n  }\n\n  function bribe() payable public {\n    require(_isOpen);\n    _balances[tx.origin] = _balances[tx.origin].add(msg.value);\n  }\n\n  function withdraw() public {\n    uint256 balance = _balances[msg.sender];\n    _balances[msg.sender] = 0;\n    msg.sender.transfer(balance);\n  }\n}\n",
  "sourcePath": "/Users/m0t0k1ch1/.ghq/src/github.com/m0t0k1ch1/happy-hacking-christmas/contracts/ChristmasStocking.sol",
  "compiler": {
    "name": "solc",
    "version": "0.5.0+commit.1d4f565a.Emscripten.clang"
  },
  "schemaVersion": "3.0.0",
  "updatedAt": "2018-12-24T16:18:17.140Z",
  "devdoc": {
    "methods": {}
  },
  "userdoc": {
    "methods": {}
  }
}