{
  "contractName": "Letter",
  "abi": [
    {
      "payable": true,
      "stateMutability": "payable",
      "type": "fallback"
    },
    {
      "constant": true,
      "inputs": [
        {
          "name": "who",
          "type": "address"
        }
      ],
      "name": "balanceOf",
      "outputs": [
        {
          "name": "",
          "type": "uint256"
        }
      ],
      "payable": false,
      "stateMutability": "view",
      "type": "function",
      "signature": "0x70a08231"
    },
    {
      "constant": true,
      "inputs": [
        {
          "name": "who",
          "type": "address"
        }
      ],
      "name": "isSealed",
      "outputs": [
        {
          "name": "",
          "type": "bool"
        }
      ],
      "payable": false,
      "stateMutability": "view",
      "type": "function",
      "signature": "0x0a66d698"
    },
    {
      "constant": false,
      "inputs": [],
      "name": "seal",
      "outputs": [],
      "payable": false,
      "stateMutability": "nonpayable",
      "type": "function",
      "signature": "0x3fb27b85"
    },
    {
      "constant": false,
      "inputs": [],
      "name": "discard",
      "outputs": [],
      "payable": false,
      "stateMutability": "nonpayable",
      "type": "function",
      "signature": "0xbb702c8e"
    }
  ],
  "bytecode": "0x608060405234801561001057600080fd5b50610506806100206000396000f3fe608060405260043610610062576000357c0100000000000000000000000000000000000000000000000000000000900463ffffffff1680630a66d698146101505780633fb27b85146101b957806370a08231146101d0578063bb702c8e14610235575b600160003373ffffffffffffffffffffffffffffffffffffffff1673ffffffffffffffffffffffffffffffffffffffff16815260200190815260200160002060009054906101000a900460ff161515156100bb57600080fd5b61010c346000803373ffffffffffffffffffffffffffffffffffffffff1673ffffffffffffffffffffffffffffffffffffffff1681526020019081526020016000205461024c90919063ffffffff16565b6000803373ffffffffffffffffffffffffffffffffffffffff1673ffffffffffffffffffffffffffffffffffffffff16815260200190815260200160002081905550005b34801561015c57600080fd5b5061019f6004803603602081101561017357600080fd5b81019080803573ffffffffffffffffffffffffffffffffffffffff16906020019092919050505061026d565b604051808215151515815260200191505060405180910390f35b3480156101c557600080fd5b506101ce6102c3565b005b3480156101dc57600080fd5b5061021f600480360360208110156101f357600080fd5b81019080803573ffffffffffffffffffffffffffffffffffffffff169060200190929190505050610369565b6040518082815260200191505060405180910390f35b34801561024157600080fd5b5061024a6103b1565b005b600080828401905083811015151561026357600080fd5b8091505092915050565b6000600160008373ffffffffffffffffffffffffffffffffffffffff1673ffffffffffffffffffffffffffffffffffffffff16815260200190815260200160002060009054906101000a900460ff169050919050565b60008060003373ffffffffffffffffffffffffffffffffffffffff1673ffffffffffffffffffffffffffffffffffffffff1681526020019081526020016000205411151561031057600080fd5b60018060003373ffffffffffffffffffffffffffffffffffffffff1673ffffffffffffffffffffffffffffffffffffffff16815260200190815260200160002060006101000a81548160ff021916908315150217905550565b60008060008373ffffffffffffffffffffffffffffffffffffffff1673ffffffffffffffffffffffffffffffffffffffff168152602001908152602001600020549050919050565b60008060003373ffffffffffffffffffffffffffffffffffffffff1673ffffffffffffffffffffffffffffffffffffffff16815260200190815260200160002054905060008060003373ffffffffffffffffffffffffffffffffffffffff1673ffffffffffffffffffffffffffffffffffffffff168152602001908152602001600020819055506000600160003373ffffffffffffffffffffffffffffffffffffffff1673ffffffffffffffffffffffffffffffffffffffff16815260200190815260200160002060006101000a81548160ff0219169083151502179055503373ffffffffffffffffffffffffffffffffffffffff166108fc829081150290604051600060405180830381858888f193505050501580156104d6573d6000803e3d6000fd5b505056fea165627a7a72305820443b0e9958d915803cde43d1cebb3c613d56b08b67c3e40081bbe6f049ccc7e90029",
  "source": "pragma solidity >0.4.99 <0.6.0;\n\nimport \"./SafeMath.sol\";\n\ncontract Letter {\n  using SafeMath for uint256;\n\n  mapping(address => uint256) private _balances;\n  mapping(address => bool) private _isSealeds;\n\n  function balanceOf(address who) public view returns (uint256) {\n    return _balances[who];\n  }\n\n  function isSealed(address who) public view returns (bool) {\n    return _isSealeds[who];\n  }\n\n  function () payable external {\n    require(!_isSealeds[msg.sender]);\n    _balances[msg.sender] = _balances[msg.sender].add(msg.value);\n  }\n\n  function seal() public {\n    require(_balances[msg.sender] > 0);\n    _isSealeds[msg.sender] = true;\n  }\n\n  function discard() public {\n    uint256 balance = _balances[msg.sender];\n    _balances[msg.sender] = 0;\n    _isSealeds[msg.sender] = false;\n    msg.sender.transfer(balance);\n  }\n}\n",
  "sourcePath": "/Users/m0t0k1ch1/.ghq/src/github.com/m0t0k1ch1/happy-hacking-christmas/contracts/Letter.sol",
  "compiler": {
    "name": "solc",
    "version": "0.5.0+commit.1d4f565a.Emscripten.clang"
  },
  "schemaVersion": "3.0.0",
  "updatedAt": "2018-12-24T16:18:17.144Z",
  "devdoc": {
    "methods": {}
  },
  "userdoc": {
    "methods": {}
  }
}